:020000040800F2
:10000000F814002039B0000895B00008FFA50008DA
:1000100099B000089DB00008A1B0000800000000E1
:1000200000000000000000000000000061B10008B6
:10003000A5B000080000000063B1000861A6000838
:10004000A9B00008ADB00008B1B00008B5B0000814
:10005000B9B00008BDB00008C1B00008C5B00008C4
:10006000C9B00008CDB00008D1B00008D5B0000874
:10007000D9B00008DDB00008E1B00008E5B0000824
:10008000E9B00008EDB00008A9A50008F1B000082B
:10009000F5B00008F9B00008FDB0000801B1000893
:1000A000CDA50008BFA5000805B1000809B10008EA
:1000B0000DB10008000000000000000011B10008B0
:1000C00015B1000819B100081DB1000800000000BA
:1000D00021B100084576000825B1000829B10008C3
:1000E0002DB1000831B1000835B100080000000052
:1000F0000000000000000000000000000000000000
:1001000000000000000000000000000039B10008FD
:1001100000000000000000003DB1000800000000E9
:1001200000000000000000000000000000000000CF
:1001300000000000000000000000000000000000BF
:1001400041B1000845B100080000000000000000B7
:10015000000000000000000000000000000000009F
:1001600049B100084DB1000851B1000855B100086F
:1001700059B100080000000000000000000000006D
:10018000000000005DB10008012000F03FB830B46D
:10019000002513E050F8042BD30744BFA9F1010355
:1001A0009A18091F042942F8045BFAD213468C07F7
:1001B00044BF15809B1CC90748BF1D7050F8041B25
:1001C0000029E7D130BC70470749086808B1002012
:1001D00070470648C008C00008600549C908C90042
:1001E000091A0160704700BFEC100020FF140020C6
:1001F000F82400204AB1000011F8013B521E00F81B
:10020000013B1CBF11F8013BF8E7704780B5AFF325
:100210000080024A11001820ABBEFBE72600020056
:100220008268DFF80C160A4042F0080282607047CC
:1002300030B5012908BF00211FD0042908BF0121C2
:100240001BD0102908BF022117D0402908BF032165
:1002500013D0B1F5807F08BF04210ED0B1F5806FB7
:1002600008BF052109D0B1F5805F08BF062104D081
:10027000B1F5803F0CBF072108210FF2E0630FF2B8
:10028000E8655C5C695C18300019DFF8A845036814
:100290008C40A3438A401A43026030BD70B50129E7
:1002A00008BF00211FD0042908BF01211BD010293D
:1002B00008BF022117D0402908BF032113D0B1F590
:1002C000807F08BF04210ED0B1F5806F08BF0521E3
:1002D00009D0B1F5805F08BF062104D0B1F5803F99
:1002E0000CBF0721082100F02DF82C43146070BDCD
:1002F00070B5012908BF00211FD0042908BF0121C2
:100300001BD0102908BF022117D0402908BF0321A4
:1003100013D0B1F5807F08BF04210ED0B1F5806FF6
:1003200008BF052109D0B1F5805F08BF062104D0C0
:10033000B1F5803F0CBF0721082100F003F8AC4362
:10034000146070BD0FF214620FF21C66535C18301B
:10035000C21808251468705C854070474163704777
:1003600081637047C163704701647047426822F03F
:100370007002114341607047416C41F40041416497
:1003800070476FF0010101617047006900F00100E2
:100390007047C16841F00101C160704781617047D9
:1003A00081627047F8B5044604F15C050FF2A112B2
:1003B000A86946680768002028606860A860A8747B
:1003C000316ADFF8740401403162626040210FF24B
:1003D000E900A06104222982EA7484F83A202046C8
:1003E00003F09CFC706800F070007028FAD1B968C6
:1003F000DFF83C04014041F00801B96004F16E03EC
:10040000A86990F87B2000F052F8204603F0D2FC57
:100410000020A8740FF285116160E87484F83A0036
:10042000204603F07BFCA86990F87B2004F16E0362
:1004300000F03DF8204603F0BDFC2868696800091B
:1004400028600909A86869600009A860DFF8EC1352
:100450000FF275006160A06101213046FFF748FF8F
:1004600010213046FFF744FF4FF480713046FFF70C
:100470003FFFA8897063A989B1630121A889F0634E
:100480003046FFF70BFF10213046FFF707FF4FF410
:1004900080713046FFF702FF316A40F25550014348
:1004A0003162042284F83A200020A875F1BD04F1DD
:1004B0003801304603F0ABBC00F13A0190F86F20F0
:1004C0000A70C98D491E27E0F8B500F13A02456F60
:1004D0005188D38D35F8726F5C1AA7B2BE4204D230
:1004E00004211170D28D511E13E097882404CF1B74
:1004F000E40BBFB2BC4202D26A88891A09E07118C3
:100500008CB29C4205D380235386D28DC1EB42012D
:10051000491EBDE8F44000BF89B270B504460D46DF
:10052000606F4668618E3046FFF718FFA18E304637
:10053000FFF716FFE18E3046FFF714FF29463046DD
:10054000FFF712FF706810F0700018BF012070BD37
:100550002DE9F041044604F16E060D46606F717896
:1005600000EB81014A6A1768CB6BD3F800804068C2
:100570000021FFF7FBFE3178102909D2E06D216ED2
:100580003F188844E765C4F860803078401C3070BC
:10059000002129806980BDE8F081000070B500F17C
:1005A00064050C462869E97A00EB81020021D36BCF
:1005B0001E684068FFF7DAFEA87A102805D229687D
:1005C000A87A7618401C2E60A87200202CE1830CBB
:1005D00010B503F03C039A4AD3189A4A1C686FF38B
:1005E0000F142143196000F0010153680B4353605D
:1005F000012400F010001368934904FA00F003404E
:1006000083420AD10868914AB0FBF2F00C214843BA
:10061000002818BF401EFBD110BD1368184310609E
:1006200008688A49B0FBF1F0C0EB0010002800E038
:10063000401EFDD110BD38B50446606F456894F882
:100640004700002837D16022012100F044F8286AD1
:1006500040F0010028620021286A20F0040028628E
:100660006963606F90F87A0001280AD1102200F0C7
:1006700031F8286A20F010002862286A40F0400013
:100680000BE002280AD1202200F024F8286A40F06A
:1006900010002862286A20F04000286270224FF47F
:1006A000807100F018F8286A20F480702862286AA7
:1006B00020F4806028620FF239100FF2A5116060FB
:1006C00061610FF2E5106249E060A160012084F8E9
:1006D000470031BD10212846AAE570B5044604F153
:1006E0006805E868466894F8470001285FD13168DA
:1006F000C806FCD53168CB06FCD460220121304607
:10070000FFF796FD306A40F0010000F051F803D188
:10071000306A40F0040004E0022803D1306A20F07F
:10072000040030622888400870636022102130463F
:10073000FFF77EFD306A40F0100000F039F803D179
:10074000306A40F0400004E0022803D1306A20F013
:100750004000306228884008B06360224FF4807106
:100760003046FFF765FD306A40F4807000F020F8F5
:1007700003D1306A40F4806004E0022803D1306A7B
:1007800020F48060306228884008F063E8680068E0
:10079000C16821F48011C16028482E496060616100
:1007A0002D482B49E060A160002084F8470070BD0F
:1007B0003062E86890F87A000128704710B5024668
:1007C00002F13A03506FDC8D40686143090C518699
:1007D00003211970538E43634068118F10F070002D
:1007E00018BF0120012902D100210120118710BD6D
:1007F00070B5054605F160060C4672695068002127
:10080000FFF7B4FD706995F83A20316800EB820378
:10081000D86B0068081A1149884203DD47F6FF715A
:10082000884200DB084600BF2080608070BD000069
:10083000C0FFFF7F73000100AAFAFFFF19AB000899
:1008400008740040007400408C08002080841E0062
:10085000B53D000841AE00081D3D00080180FFFFC6
:1008600038B504460021606F4568696300F06EF892
:100870002846FFF78AFD0028FAD000F067F82846DE
:10088000FFF77AFD00F05CF80CD109888069FFF76A
:1008900085FD00F05DF8606FB0F87010006ABDE88B
:1008A00034407DE531BD0000F8B5044604F13A0757
:1008B000606F45680668002038722968C806FCD455
:1008C0002968C806FCD5012169632846F98D491FAE
:1008D000FFF74AFD00F03AF82846FFF756FD0028DA
:1008E000FAD000F033F8686C40F480606864284601
:1008F000FFF742FD00F024F819D1098880692A6ABF
:1009000040F255531A4208D0FFF748FD606FB0F827
:100910006E10C069FFF742FD03E0FFF741FD00F0F4
:1009200017F8606FB0F87010006AFFF739FD032008
:1009300038703046FFF774FC2846BDE8F24028E5E1
:10094000606F00F16C018A7B022A7047284618E527
:10095000606FB0F86E10C06922E500000000000072
:100960000404043C3C0000000000080000000800F3
:10097000080000002DE9F84F80460422D8F87400E2
:1009800007688468C668D0F810A0D0F8149045684D
:10099000796821F0040179603A602022796821F0B9
:1009A000200179603A6080498D4204D17F490A680C
:1009B00042F001020A60DFF8F8B1A4B17630C179E3
:1009C000012908D0226802F07002402A03D1018870
:1009D0005846FFF7FCFD226842F0010222602068C1
:1009E00040F0004020603EB1306840F001003060CF
:1009F000316841F000413160BAF1000F0BD0DAF8F4
:100A0000000040F00100CAF80000DAF8001041F0E0
:100A10000041CAF80010B9F1000F1BD0D8F87400DB
:100A20007830017A012909D0D9F8002002F070024B
:100A3000402A03D101885846FFF7C9FDD9F80000C4
:100A400040F00100C9F80000D9F8001041F0004161
:100A5000C9F80010B868C10741D4B868554900F01A
:100A60004050B0F1805F15D0B868534A534B20F026
:100A70004050B860B868084040F08050B8601068D6
:100A8000B0FBF3F3009302E00098401E0090009842
:100A90000028F9D1BA684A48024042F00042BA60E0
:100AA000B868C00FFCD13868C207B8685EBF08409C
:100AB00040F00100B860F6D5084040F00800B8608A
:100AC000B868014041F02001B9604021F86840F465
:100AD0000010F8603960786840F0400078604FF4AA
:100AE0007A7428684008400028602846696821F028
:100AF000700169600121FFF7D1FB10212846FFF743
:100B0000CDFB4FF480712846FFF7C8FB4FF48051AE
:100B10002846FFF7C3FB686940F00100686108F1EF
:100B20004602D8F8740000F17B01887902280DD1C3
:100B3000C879012804BF0B78032B0CD12863032646
:100B40006B6943F001036B612E6304E0107880B998
:100B50000878012803D1508C401E686209E0032800
:100B600007D10120286303206A6942F001026A610B
:100B700028636FF080022A61487820B908E06FF49A
:100B800080712961641E2869C10501D5002CF6D148
:100B9000E86840F08000E86040F25550296A01435F
:100BA0002962BDE8F18F00BF002C01400C2004E059
:100BB00001001002C0FFFF7F8C080020400D0300E1
:100BC000C0FFFF3F0148006800F008B85808002047
:100BD0000148006800F014B85808002080B581680A
:100BE000B1F91A00B1F91C10494310FB001000F0D4
:100BF00019F847F6FF718842C8BF084600B202BD27
:100C000080B58168B1F90400B1F90610494310FBC1
:100C1000001000F007F847F6FF718842C8BF084689
:100C200000B202BD10B50146002914DD00220B48B8
:100C30008142ACBF4FF40053802391FBF3F0C01806
:100C400000EBD0704010984204D0521CD4B2062C55
:100C50000346F2D310BD002010BD00BF01002000EC
:100C600010B50446217A491E03291ED8DFE801F099
:100C7000020D0614608930B9022102E0608910B9C2
:100C80000421217211E0411E0EE0206808F0BCFD35
:100C900004280AD0032005E0206808F0B5FD0428E8
:100CA00003D10120A18920726181207A10BD2DE934
:100CB000F84F00F1FC0588460022AB7C00214FF084
:100CC00000090026002794468E46002400F1740B8C
:100CD00003E03BF91AA0D144641C5FFA84FA9A45F8
:100CE000F7DB1C4699FBF4F4894607E03BF91AA0B0
:100CF000AAEB040A0AFB0A2209F101095FFA89FA40
:100D00009A45F3DBB5F8149004FB04FA09FB0AFAE0
:100D100092FBF3F24FEAAA130AEB5363B2EBE31F21
:100D2000438B8278B8BF4FF0010C5C43C3695443D6
:100D3000427894FBF3F393FBF2F2A8F8002000F161
:100D4000F504828184F800C02B7A012B2AD113008C
:100D5000EA8B48BF5B4293421EDAB0F97020B0F9CB
:100D600072606F7F524316FB0626B0F91420C3EB66
:100D7000C33393FBF2F257437B1107EB9367BF1129
:100D800057437A1107EB92632A7F9B1102FB13737F
:100D9000B342B8BF4FF0010E84F804E02E606F60DC
:100DA000724600E00122E67896B12378002B18BF46
:100DB000002A0CD1A278521CA270D2B2EB7E9A42C9
:100DC00006D3A170C37803700846BDE8F28FA17006
:100DD000414608F01BFD0146F6E7F8B5044604F568
:100DE00084756868B0F90E20B0F90C10B0F91630AF
:100DF000B0F9180012FB00F7A86811FB03F603F026
:100E0000FDFFBE192A68F11306EB114650434FF45B
:100E10001671361490FBF1F14E43062046432046EE
:100E20000A2396FBF3F1CA1301EB1241BDE8F4402B
:060E3000091408F016BDD4
:101000002DE9F843054690460E469946404601F0C4
:1010100095FA18B90F490A78521C0A70099C089F62
:1010200028600021284600F0DCF80021284600F066
:10103000DEF8002100F0ACF90120C5F81080287519
:101040006E7585F81690AF61FF202C776877A877CA
:10105000BDE8F183F310002010B50446002100F034
:10106000C0F80021204600F0C2F82046BDE810403C
:1010700000218FE170B504460D462168207A0E18D4
:10108000204600F03CF908B1207D38B12878307056
:1010900000F024F82046BDE87040C6E070BDF8B509
:1010A00004460D461646002709E02168227AE85DCD
:1010B000885400F013F8204600F0B7F87F1C306821
:1010C000874209D2204600F039F931688842ECD2D3
:1010D000207D0028E9D1F2BD0120F2BD2046217B10
:1010E000491C57E1F8B504460D46164600270DE0A9
:1010F00020682179425C05F8012B2046217B491E9E
:1011000000F048F9204600F075F87F1C30688742EF
:1011100007D2204600F0E7F80028E9D03760002029
:10112000F2BD37600120F2BD2DE9F0410546884649
:1011300017461C4600F002F9287B874205D34FF67C
:10114000FF7121600020BDE8F081002603E00078F7
:1011500008F8010B761C21688E4207D2F119284647
:1011600000F083F80028F2D12660ECE72660012029
:10117000E9E72DE9F04104468846164600F0DEF81E
:10118000207B864203D34FF6FF70BDE8F081002735
:1011900000E07F1CE168F8B2C9B2884209D2FDB212
:1011A000A919204600F061F800784045F1D12846A1
:1011B000EBE74FF47040E8E700687047C068C0B2E2
:1011C0007047407D70474175012070474177084660
:1011D0007047407F70478177084670474068C0B2CB
:1011E00070474160084670478068C0B270478160B0
:1011F0000846704738B5044600F075F808B100207D
:1012000032BD204600F0C9F800F095F82D1A022DE5
:10121000B8BF002104DB2046FFF7E0FF401CC1B24D
:101220002046FFF7DEFF012032BD38B5044600F04E
:1012300066F80028204606D000F0B2F8A0B120469B
:10124000FFF7D8FF204600F0A8F800F071F82D1A3B
:10125000022D01DA002103E000F06BF8411CC9B255
:101260002046FFF7C4FF012032BD70B505460E468B
:1012700000F064F8284600F036F800BB2846FFF777
:101280009DFFB0421BD3284600F058F8012828469D
:1012900017DBFFF793FF864211D200F077F836187C
:1012A000284600F07AF8F6B2864203DB284600F0C2
:1012B00074F8361A2846FFF77FFFF6B211E00020D7
:1012C00070BD00F06AF8044600F060F8241AA41B10
:1012D00003D12846BDE870406EE72C6800F056F850
:1012E0002044304470BD38B50446FFF777FF00F066
:1012F0001FF8854201D1012032BD002032BD38B532
:101300000446FFF771FF00F016F82D1A204600F092
:1013100044F8401E854207D000F00BF800F00BF8AF
:101320002D1A15F1010F01D1012032BD002032BD6F
:101330000546204658E7054620464FE770B5054666
:10134000FFF752FF064600F021F8341A204609F054
:1013500099FE002C064607DD314600F019F82846B4
:1013600000F01BF8001B70BD284606D000F015F8F1
:10137000811B00F00DF8304670BD00F00EF8411EE4
:1013800000F006F82846BDE8704006E0284625E74C
:101390002846FFE7C160C8B270470069C0B2704715
:1013A000007D704780B500F04EF900F0A1F90120F2
:1013B00002BD2DE9F047824C824D4FF0160A0026FF
:1013C0000AFB06F02F18B87A00BBD4E90A0197F897
:1013D0000880C4E90C01D7F801C07B7A3A7AF97920
:1013E0003878E047387287F80780D4E90A01D4E9F1
:1013F0000C23D4E91489801A9941894504D82EBF59
:101400008045C4E914016670C4E90E010020207112
:10141000207904F1080101EBC002D2E90089B9F199
:10142000000F08BFB8F1000F62D001200021C4E90D
:101430001801E17094F804C004F1080000EBCC0737
:10144000D4E91801D7E900231040194008BF00284B
:101450003CD0D4E90A01E778C4E9100107EB8C1706
:10146000FFB2384600F04FF8FF281DD01AFB07F0F6
:101470002918D1F801C04B7A285C1A461946E04772
:1014800094F804C004F1080000EBCC00D0E900237C
:10149000D4E9180122EA000004F1080202EBCC02B0
:1014A00023EA0101C2E90001D4E90A23D4E91001C9
:1014B000D4E91689101A63EB0101894504D82EBFBF
:1014C0008045C4E91601A770C4E91201D4E91801E6
:1014D000490041EAD0714000002904BF00280120E2
:1014E000C4E91801E078401CE070C0B24028A1DBDC
:1014F0002079401C2071C0B2042889DB761C092E9B
:101500003FF75DAF5CE730B50146FF2000222D4B71
:10151000162454431D5D8D4208BF1046521C0A2AF2
:10152000F6DBC0B230BD10B5274B9C6844F0010417
:1015300000229C6002E00C5D1C70521C94B284423C
:10154000F9D3186880B210BD2DE9F84F89461E46C0
:101550004FEA99131A4F07EBC30804461546D8E91A
:1015600002AB01200021A9EB831209F0E9FC4AEA51
:1015700000024BEA0103C8E902233C704846FFF72A
:10158000C2FF0146FF290AD016220E4B0A9851438A
:1015900019444874CD730E740B98C1F81200BDE85D
:1015A000F18F30B50648D0E90A23541C63F1FF35AA
:1015B000C0E90A4530BD0248D0E90A017047000081
:1015C0009808002000090020003002402DE9FC4767
:1015D00082460C46002500261427DFF8948000F090
:1015E0002BF8504508D1484600F0BDF8864203D29A
:1015F000484600F0B8F806466D1CE8B20A28EEDB53
:10160000002500F019F8FF2805D06D1CE8B20A2863
:10161000F7DB00200EE0002001900090002322461E
:101620005146484600F07CF8761CF1B2484600F07E
:101630009CF84846BDE8F687E8B2784308EB000915
:10164000484600F08BB838B50024E3B21425084AA8
:101650006B43D518FF21284600F082F8FF21284669
:1016600000F083F8641CE0B20A28EEDB012032BDF2
:10167000800C00202DE9FE4380460C460026002702
:10168000264D00F02FF8404508D14846FFF7A1FD50
:10169000874203D24846FFF79CFD0746761CF0B20E
:1016A0000628EEDB002600F01DF8FF2805D0761C8A
:1016B000F0B20628F7DB002012E000200190009035
:1016C0000023224641464846FFF79AFC7F1CF9B2A8
:1016D0004846FFF77BFDF1B24846FFF77CFD4846E0
:1016E000BDE8FE83300605EBD0494846FFF769BDEB
:1016F00038B50024094A230602EBD345FF212846CA
:10170000FFF761FDFF212846FFF760FD641CE0B292
:101710000628EFDB012032BD00000000480D00204C
:10172000F8B5044617460D461E46384600F006FF3B
:1017300018B909490A78521C0A700799069A20605C
:101740002174E260257266723946204600F010F876
:10175000FF206074F1BD0000F2100020007A704795
:10176000017201207047407C704741740846704701
:101770000246C8B288420CBF012000205160704769
:10178000000000002DE9F041044604F168004668BD
:10179000D0F800800D4604F15307E5800020B870B2
:1017A000787138707870304604F065FC002140464E
:1017B00008F077F8608810FB05F109B2304608F0B0
:1017C00074F800220021404608F076F8208AA289A9
:1017D00010FB05F109B2404608F06EF8E089A289D5
:1017E00010FB05F109B2304608F0ABF8A18920885A
:1017F00041434FF47A72B1FBF2F26069A060521C6F
:10180000A28000213971BDE8F08100000149C88142
:10181000704700BF680E0020024AD189002001B93C
:1018200001207047680E002070B5002504460800AE
:1018300004F1100607D1204604F01DFDB4F8520053
:10184000B08660B907E0012909D1B08E30B1401EE1
:10185000B08680B218B931682046884701252846ED
:1018600070BD4161704770B504460125A08800280D
:101870001FBF401EA08080B2002827D1A06820B3DF
:1018800002888088E18804F1580610FB01F1306974
:1018900009B208F011F8A06802884088E18810FBBE
:1018A00001F1706909B208F04CF8A16820880A8833
:1018B00042434FF47A73B2FBF3F35B1CA380886856
:1018C000A0603178491C317000E00025284670BDC9
:1018D000F00254FFFFFF0001A007699F0008060106
:1018E0000000C86FE00401657D00080016F00102E9
:1018F00002D16316F0010203FDAB16F0010204955C
:10190000A416F0010205B18B16F0010206D5781677
:10191000F0010207DD8F16F0010208B57616F0011E
:05192000020949AD16AB
:1020000000F5E0700268914203D343681A4491429C
:1020100002D380680028F5D170471849086880B954
:102020004FF4805048604FF480324FF0FF30C8606A
:1020300008610420124B8A604861C3F8BC01114852
:1020400008600120704701F1080313F0070F0EBF6D
:102050000023C3F1080303F007031944D21A816176
:10206000C26042F001034B60091D4FF0280C41F89B
:1020700002C0024A1369C36170470000701000205B
:10208000DC0900206859883C2DE9F04705460E46DA
:1020900091467068C10706EB09083AD4346810F01D
:1020A000030F00F049826042296906448E42A14430
:1020B000C0F03E826869864200F0C080E4081F2CB0
:1020C00055D8D6F80CA0B768564508BFFEF75CF89F
:1020D000BE4208BFFEF758F87068C008C000B0EBF9
:1020E000C40F18BFFEF750F805F1280000EBC4003C
:1020F000874205D029698F4236D3FA68B24233D17C
:10210000BA4523D12868012101FA04F420EA040425
:102110002C6029698845C0F00B82D8F80440A007DC
:1021200000F16781AA69904540F09B80E8684844C7
:10213000E860AE6140F0010070606869864240F07E
:10214000FB8100216961A960BDE8F087824506D066
:102150002869824508D3DAF80810B14204D1C7F8DB
:102160000CA0CAF80870D4E7FEF70EF8D1E7F468BF
:10217000B769B4420BD0B068884222D3C168B1427B
:1021800004BFA268B2421CD1C460A0601BE006F18B
:102190001402146834B906F1100214689CB101E00D
:1021A0001A46146804F114031868002802BF04F1E9
:1021B000100318680028F3D18A4202D3002111606D
:1021C00001E0FDF7E1FF002FA3D0F06905F598715C
:1021D00001EB80010A6896420AD11CBB6A680123A0
:1021E00003FA00F022EA000068600020086090E72F
:1021F00029698F4213D33869B04214BF7C613C61B6
:10220000002C86D029698C42AED3A761306958B1C1
:10221000884226BF20618461FDF7B6FF04E0FDF728
:10222000B3FFEDE70C60EDE7706900283FF471AF94
:102230002969884298D3606184616AE798F804004C
:1022400000F0030003287FF464AFC5F8089049F05C
:102250000101D8F8040040084000C8F8040071608B
:102260000AE0686980450BD1A9686E618944C5F8A8
:10227000089049F00100706046F80990BDE8F087C9
:10228000E408E400A144E4081F2C3AD8D8F80CA0D4
:10229000D8F80870D04508BFFDF776FFB84508BFED
:1022A000FDF772FFD8F80400C008C000B0EBC40FFF
:1022B00018BFFDF769FF05F1280000EBC400874255
:1022C00007D029698F42C0F08680FA68424540F005
:1022D0008280BA4507D12868012101FA04F420EA76
:1022E00004042C6079E0824506D02869824572D3C7
:1022F000DAF8081041456ED1C7F80CA0CAF808708A
:102300006BE0D8F80C40D8F8187044450CD0D8F8D9
:102310000800884222D3C168414504BFA2684245F3
:102320001CD1C460A0601BE008F11402146834B929
:1023300008F1100214689CB101E01A46146804F117
:1023400014031868002802BF04F11003186800285D
:10235000F3D18A4202D30021116001E0FDF714FF9E
:10236000002F3AD0D8F81C0005F5987101EB8001D8
:102370000A6890450AD11CBB6A68012303FA00F081
:1023800022EA000068600020086026E029698F4288
:1023900013D33869404514BF7C613C61ECB12969B5
:1023A0008C4218D3A761D8F8100058B1884226BFD4
:1023B00020618461FDF7E8FE04E0FDF7E5FEEDE74E
:1023C0000C60ECE7D8F8140038B12969884202D3D0
:1023D0006061846101E0FDF7D7FE49F001007060A3
:1023E00046F8099069698E420CD1C5F80890BDE89D
:1023F000F08764086400C8F8044049F00100706088
:1024000046F809904FEAD9071F2F23D805F1280075
:1024100000EBC704A046B9F1100F38BFFDF7B4FEBA
:10242000286820FA07F1CA0705D4012101FA07F745
:1024300007432F6006E0A068296988422CBF8046C8
:10244000FDF7A2FEA660C8F80C60C6F80880F4602C
:10245000BDE8F0875FEA192008BF002123D0B0F55E
:10246000803F28BF1F211ED2A0F58072120C02F0FF
:1024700008029040A0F58051090C01F00401884049
:10248000A0F580431B0CC2F10E0203F00203521AA6
:10249000D21A984002EBD032D01D29FA00F101F097
:1024A000010101EB420105F59872002302EB810066
:1024B000F161736133616A6822FA01F3DC0707D4C2
:1024C000012303FA01F1114369600660B0611DE068
:1024D00002681F291DBF4908C1F1190109FA01F15C
:1024E000494600E002465068C008C000484511D087
:1024F00002F11003C80F03EB80034900186800289D
:10250000F0D12869834213D31E60B261F660B660D1
:10251000BDE8F087296990688A4228BF884207D3BE
:10252000C6609660B060F2600020B061BDE8F087E0
:10253000BDE8F047FDF728BEBDE8F0872DE9F84F6C
:1025400084B00646AFF30080F52E1E4D80F0138256
:102550000B2E31BF10260B36F608F6002868F4085B
:10256000E04010F0030F4AD0C04300F0010004190E
:1025700005F1280000EBC408E700D8F8086070688F
:10258000C008C000B84218BFFDF7FEFDD6F808909D
:10259000464508BFFDF7F8FD4E4508BFFDF7F4FDC1
:1025A0007068C008C000B84218BFFDF7EDFDC8450F
:1025B0000AD12868012101FA04F420EA04042C60FD
:1025C00010E000BFDC0900202869814508D3D9F854
:1025D0000C10B14204D1C8F80890C9F80C8001E091
:1025E000FDF7D2FD47F00300311D7060301DCA5960
:1025F00042F00102C25106F1080800F01DBFA968AF
:10260000B14280F0A883002800F0A2804FF00108BA
:1026100008FA04F1490000FA04F4484201430C406E
:1026200060420440641E200B00F01000C4406109A9
:1026300001F00801CC40A20802F00402D440630873
:1026400003F002030818DC401018C4F34007181800
:102650003818FC40241805F1280000EBC40AE700F4
:10266000DAF80890D9F80400C008C000B84218BFD2
:10267000FDF78AFDD9F808B0D14508BFFDF784FD04
:10268000D94508BFFDF780FDD9F80400C008C00097
:10269000B84218BFFDF778FDDA4506D1286808FA78
:1026A00004F420EA04042C600DE029698B4508D36A
:1026B000DBF80C00484504D1CAF808B0CBF80CA0F0
:1026C00001E0FDF761FDBF1B46F0030009F10402C4
:1026D000C9F8040047F00101915109EB060201928B
:1026E000D751AC684FEAD40ABAF11F0F88BFFDF783
:1026F0004BFD34B3CDF800A005F128006E6900EB66
:10270000CA0AD346102C38BFFDF73EFD2968009851
:1027100021FA00F2D30704D408FA00F00843286035
:1027200007E0DAF80800296988422CBF8346FDF7E4
:102730002BFDCAF80860CBF80C60C6F808B0C6F8E4
:102740000CA0AF6009F108080198686100F074BE40
:102750006868002800F0208341420840401E010BB9
:1027600001F01001C840420902F00802D04083087D
:1027700003F00403D840440804F002045118E04078
:102780005918C0F34007611805F598787918F84092
:10279000401858F820104868C008C0008A46A0EBCE
:1027A000060B08E001464868C008C000801B584579
:1027B0003CBF83468A4608690028F3D1496900294D
:1027C000F1D128698245C0F0D380DAF80410C90835
:1027D00006EB0B09C900494518BFFDF7D5FC0AEB0C
:1027E00006008245019080F0C380DAF80C40DAF8E8
:1027F000187054450DD0DAF808002969884223D3AF
:10280000C268524504BFA16851451DD1C460A06093
:102810001CE00AF114010C6834B90AF110010C68CB
:10282000A4B101E011460C6804F1140210680028FC
:1028300002BF04F1100210680028F3D12869814218
:1028400002D300220A6001E0FDF79EFC002F38D081
:10285000DAF81C0008EB80010A6892450AD11CBB1B
:102860006A68012303FA00F022EA00006860002091
:10287000086026E029698F4213D33869504514BF98
:102880007C613C61ECB129698C4218D3A761DAF80C
:10289000100058B1884226BF20618461FDF774FCA6
:1028A00004E0FDF771FCEDE70C60ECE7DAF81400EA
:1028B00038B12969884202D36061846101E0FDF783
:1028C00063FCBBF1100F0ED249F003000AF10401C2
:1028D000CAF804000AF1040051F8092042F001028C
:1028E00040F809203EE046F003010AF10402CAF86C
:1028F00004104BF001009051019941F80BB0A86809
:102900000090C4081F2C88BFFDF73EFC009828B338
:1029100005F1280000996F6900EBC408C146102931
:1029200038BFFDF731FC286820FA04F1CA0705D446
:10293000012101FA04F404432C6007E0D8F80800F0
:10294000296988422CBF8146FDF71EFCC8F8087033
:10295000C9F80C70C7F80890C7F80C80C5F808B023
:10296000019868611AF1080800F0F58100F064BD73
:10297000FDF70AFCEFE116F1400F28BF4FF0FF36DC
:1029800080F0E9810B36F6086B68F600002B00F04A
:10299000E2810027300AC6F1000908BF002423D0D5
:1029A000B0F5803F28BF1F241ED2A0F58071090C0E
:1029B00001F008018840A0F58052120C02F00402D8
:1029C0009040A0F58044240CC1F10E0104F00204F3
:1029D000891A091BA04001EBD031C81D26FA00F46A
:1029E00004F0010404EB410405F5987858F824003C
:1029F00030B31F2C0FBFB4464FEA540CCCF1190C66
:102A000006FA0CFCBE46494601E04FEA4C0C42680F
:102A1000D208D200921B8A4202D2110007460CD083
:102A2000426910304FEADC7950F82900002A1CBFB7
:102A3000824296460028E8D170468946A8BBB7BBBB
:102A4000012101FA04F4640060420443234000F0D1
:102A50008281584203405B1E180B00F01000C340F7
:102A6000590901F00801CB409A0802F00402D34052
:102A70005C0804F002040818E3401018C3F3400C8B
:102A80002018604423FA0CF31B1858F823000CE0BC
:102A900008464168C908C900891B49453CBF8946A9
:102AA000074601690029F3D140690028F1D1002FC0
:102AB00000F05181A868801B814580F04C81296914
:102AC0008F42FFF455AF7868C008C00006EB0901DB
:102AD000884218BFFDF758FB07EB060B5F45BFF4B4
:102AE00047AFFC68D7F818A0BC420CD0B868296979
:102AF000884223D3C268BA4204BFA168B9421DD13B
:102B0000C460A0601CE007F114010C6834B907F13F
:102B100010010C68A4B101E011460C6804F1140224
:102B20001068002802BF04F1100210680028F3D1D9
:102B30002869814202D300220A6001E0FDF724FBEC
:102B4000BAF1000F39D0F86908EB80010A689742A2
:102B50000AD134BB6A68012303FA00F022EA0000BC
:102B600068600020086028E029698A4516D3DAF8F1
:102B70001000B84214BFCAF81440CAF81040E4B1BB
:102B800029698C4217D3C4F818A0386958B1884213
:102B900026BF20618461FDF7F7FA04E0FDF7F4FA3F
:102BA000EDE70C60ECE7786938B12969884202D317
:102BB0006061846101E0FDF7E7FAB9F1100F0CD212
:102BC000B14449F00300391D7860381D51F80920DF
:102BD00042F0010240F80920B9E046F003013A1D35
:102BE000796049F0010090514FEAD9004BF8099003
:102BF0001F2822D805F1280101EBC004296821FA19
:102C000000F2D307A04605D4012202FA00F00843DF
:102C1000286006E0A068296988422CBF8046FDF73D
:102C2000B3FAC4F808B007F10800C8F80CB040F8CF
:102C3000068007F10C018C5189E05FEA192008BF7A
:102C4000002123D0B0F5803F28BF1F211ED2A0F560
:102C50008072120C02F008029040A0F58051090C1D
:102C600001F004018840A0F580431B0CC2F10E0264
:102C700003F00203521AD21A984002EBD032D01D50
:102C800029FA00F101F0010101EB420107F11403FF
:102C9000CBF81C1000229A5107F1100308EB8100B9
:102CA0009A516A6822FA01F3DC0711D4012303FA6E
:102CB00001F111436960C0F800B0CBF8180007F1CA
:102CC000080107F10C0040F806B041F806B03EE0FC
:102CD00002681F291DBF4908C1F1190109FA01F154
:102CE000494600E002465068C008C000484518D078
:102CF00002F11003C80F03EB800349001868002895
:102D0000F0D12869834220D3C3F800B007F10C0149
:102D1000CBF8182041F806B007F1080040F806B0DB
:102D200015E0296990688A4228BF88420DD3C0F80F
:102D30000CB007F10801C2F808B0885107F10C0087
:102D400082510022CBF8182001E0FDF71DFA17F19F
:102D5000080840F07183A868B0421DD3811B6A69DE
:102D6000102909D39319A96041F001005860595006
:102D700046F0030656600BE00021A96040F0030412
:102D8000111D5460141D0E5846F0010626500023F4
:102D90006B6102F108084FE3E8688642C0F03C83AB
:102DA000DFF8CC9BD9F8000008B9FFF736F9D9F85D
:102DB000081088192F30491E20EA01018E4280F048
:102DC000398305F5D877B86838B13A6889188A42E6
:102DD00080F030838842C0F02D83FDF7F5F900289C
:102DE0001CBFD0F8008010F1010F00F02383396878
:102DF0007A68414439608A4238BF7960AC6904BB63
:102E0000296909B1884200D2286100213861C7F8D8
:102E10001480F9614FF0FF31D9F800206A6229620D
:102E200005F1280200219260D26002F1080353618B
:102E30001361891C10321F29F5D9A8F12802014617
:102E40001DE005F5E0710A46814600E09268D2B1C6
:102E50001068536803449945F8D1107B030712D4D6
:102E600013689C420FD3D2F804C063449C420AD238
:102E7000C444C2F804C02146E86808EB00022846B2
:102E8000FFF7E1F8C5E22869814538BFC5F8109021
:102E900009EB080000E08968002900F0C1810A6898
:102EA0008242F8D1087B020700F1BA810868C1F8B4
:102EB00000904A6842444A6009F1080111F0070F86
:102EC00008BFCDF8049006D0C1F1080101F0070158
:102ED00009EB0102019200F1080111F0070F04D083
:102EE000C1F1080101F00701084480460198A8EBF0
:102EF00000018419A1EB060B274646F00306466045
:102F0000474528BFFDF740F998F80400C10758BFAE
:102F1000FDF73AF9BBF1100F38BFFDF735F9A86995
:102F2000804508D1E9688B44C5F80CB0AF614BF01F
:102F30000100786070E1686980450AD1A9686F6115
:102F40008B44C5F808B04BF00100786047F80BB02F
:102F500062E1D8F8040000F00301012940F0BC80D0
:102F6000C008C000C1081F29039040D8D8F8082025
:102F70000092D8F80C600291B04508BFFDF704F943
:102F80000098804508BFFDF7FFF8D8F804000299C3
:102F9000C008C000B0EBC10F18BFFDF7F5F80299EB
:102FA000009A05F1280000EBC100824208D01146CA
:102FB0002A699142C0F08B80CA68424540F0878000
:102FC00000998E4206D102982A68012383409A43D1
:102FD0002A607EE0864205D029698E4277D3B068A8
:102FE000404574D10098C6600099B16071E0D8F88E
:102FF00018000090D8F80C6046450DD0D8F80800AD
:103000002969884223D3C268424504BFB16841455B
:103010001DD1C660B0601CE008F114010E6836B91D
:1030200008F110010E68A6B101E011460E6806F124
:1030300014021068002802BF06F110021068002870
:10304000F3D12869814202D300220A6001E0FDF732
:103050009BF8009800283CD0D8F81C0005F5987122
:1030600001EB80010A6890450AD12EBB6A680123F2
:1030700003FA00F022EA000068600020086028E0FF
:1030800000992869814214D30869404514BF4E61F4
:103090000E61F6B129698E4219D30098B061D8F853
:1030A000100058B1884226BF30618661FDF76CF888
:1030B00004E0FDF769F8ECE70E60EBE7D8F81400E0
:1030C00038B12969884202D37061866101E0FDF759
:1030D0005BF8039988448B44D8F8041049084900E8
:1030E000C8F804104BF0010078604FEADB0647F89F
:1030F0000BB01F2E22D805F1280000EBC604A14614
:10310000BBF1100F38BFFDF73FF8286820FA06F131
:10311000CA0705D4012101FA06F606432E6006E02F
:10312000A068296988422CBF8146FDF72DF8A76069
:10313000C9F80C70C7F80890FC606DE05FEA1B20CE
:1031400008BF002123D0B0F5803F28BF1F211ED229
:10315000A0F58072120C02F008029040A0F5805198
:10316000090C01F004018840A0F580431B0CC2F15A
:103170000E0203F00203521AD21A984002EBD03228
:10318000D01D2BFA00F101F0010101EB4201F961C0
:10319000002305F598727B6102EB81003B616A6850
:1031A00022FA01F3DE0707D4012303FA01F11143E8
:1031B00069600760B8611DE002681F291DBF4908EA
:1031C000C1F119010BFA01F1594600E002465068BD
:1031D000C008C000584510D002F11003C80F03EB1F
:1031E0008003490018680028F0D12869834211D370
:1031F0001F60BA61FF60BC600EE0296990688A4276
:1032000028BF884206D3C7609760B860FA60002084
:10321000B86101E0FCF7B8FF019800F108080BE184
:1032200021462846FEF7ECFE0168406808440090FD
:10323000A0F1270111F0070000980EBF0021C1F195
:10324000080101F007010844A0F12F0B04F110015F
:103250008B4538BFA3460BF1180200210292019161
:10326000A8F1280249462846FEF7EDFE0BF10800BA
:1032700010F0070F18BFFCF787FF1B20CBF80400E6
:1032800005F5E07292E809500BF1080181E8095058
:1032900000210BF10800F961B861009A02980199C8
:1032A000C7F81090C7F81480072300E0001D491CE0
:1032B00000F1080797424360F8D30129D8BFFCF713
:1032C00063FFA34500F0A580ABEB040B201D221D7E
:1032D00050F80B104908490042F80B104BF0010060
:1032E00060604FEADB0944F80BB0B9F11F0F22D838
:1032F00005F1280000EBC907B846BBF1100F38BF35
:10330000FCF742FF286820FA09F1CA0705D4012119
:1033100001FA09F10843286006E0B8682969884283
:103320002CBF8046FCF730FFBC60C8F80C40C4F8E6
:103330000880E7606DE05FEA1B2008BF002123D012
:10334000B0F5803F28BF1F211ED2A0F58072120C5D
:1033500002F008029040A0F58051090C01F0040130
:103360008840A0F580431B0CC2F10E0203F002035B
:10337000521AD21A984002EBD032D01D2BFA00F12B
:1033800001F0010101EB420105F59872002302EB07
:103390008100E161636123616A6822FA01F3DF075A
:1033A00007D4012303FA01F1114369600460A061AD
:1033B0001DE002681F291DBF4908C1F119010BFA60
:1033C00001F1594600E002465068C008C000584567
:1033D00010D002F11003C80F03EB800349001868F6
:1033E0000028F0D12869834211D31C60A261E460F7
:1033F000A4600EE0296990688A4228BF884206D3FB
:10340000C4609460A060E2600020A06101E0FCF76D
:10341000BBFEE86886420DD2801BA969E8608A1964
:10342000AA6140F00100506046F003064E6001F1D1
:10343000080801E04FF00008AFF30080404605B0F7
:10344000BDE8F08F002800D170472DE9F047A0F1CA
:103450000805AFF30080DFF8B86831698D42C0F02D
:103460008482686800F00302012A00F07E82C208AC
:103470004FEAC209C20705EB090839D42C6810F0DD
:10348000030F00F06E82604205448D42A144C0F0FB
:103490006C827069854200F0DE80E408202C72D2D4
:1034A000D5F80CA0AF68554508BFFCF76DFEBD42CE
:1034B00008BFFCF769FE6868C008C000B0EBC40F25
:1034C00018BFFCF761FE06F1280000EBC40087423C
:1034D00005D031698F4253D3FA68AA4250D1BA4518
:1034E00040D13068012101FA04F420EA0404346078
:1034F000454580F03A82D8F80440E00740F1358233
:10350000A10700F18381B069804540F0B780F16880
:10351000B5618944C6F80C9049F001006860716992
:103520008D4202D100207061B060F169494580F0A0
:103530001882DFF83C24106808B9FEF76EFDB16907
:10354000002900F00E82F068292824BF3046FEF7DB
:1035500057FDF069F168884280F003824FF0FF3038
:10356000F061FEE1824506D03069824508D3DAF881
:103570000810A94204D1C7F80CA0CAF80870B7E730
:10358000FCF702FEB4E7EC68AF69AC420BD0A86868
:10359000884222D3C168A94204BFA268AA421CD1B2
:1035A000C460A0601BE005F11402146834B905F191
:1035B000100214689CB101E01A46146804F1140367
:1035C0001868002802BF04F1100318680028F3D11E
:1035D0008A4202D30021116001E0FCF7D5FD002FE3
:1035E00086D0E86906F5987101EB80010A6895427A
:1035F0000AD124BB7268012303FA00F022EA00001A
:1036000070600020086073E731698F4214D3386915
:10361000A84214BF7C613C61002C3FF469AF316962
:103620008C42ADD3A761286958B1884226BF20617A
:103630008461FCF7A9FD04E0FCF7A6FDECE70C6053
:10364000EDE7686900283FF453AF3169884297D3AA
:10365000606184614CE798F8040000F003000328DF
:103660007FF446AFC6F8089049F00101D8F804008D
:1036700040084000C8F8040069600AE070698045AD
:103680000AD1B16875618944C6F8089049F0010013
:10369000686045F8099064E1E408E400A144E408A6
:1036A000202C3AD2D8F80CA0D8F80870D04508BF22
:1036B000FCF76AFDB84508BFFCF766FDD8F80400C2
:1036C000C008C000B0EBC40F18BFFCF75DFD06F1E9
:1036D000280000EBC400874207D031698F42C0F058
:1036E0008880FA68424540F08480BA4507D1306846
:1036F000012101FA04F420EA040434607BE08245ED
:1037000006D03069824574D3DAF80810414570D18B
:10371000C7F80CA0CAF808706DE0D8F80C40D8F8CB
:10372000187044450DD0D8F808003169884223D379
:10373000C268424504BFA16841451DD1C460A06074
:103740001CE008F114010C6834B908F110010C6890
:10375000A4B101E011460C6804F1140210680028BD
:1037600002BF04F1100210680028F3D130698142D1
:1037700002D300220A6001E0FCF706FD002F3AD0D8
:10378000D8F81C0006F5987101EB80010A68904595
:103790000AD11CBB7268012303FA00F022EA000080
:1037A00070600020086026E031698F4213D33869C9
:1037B000404514BF7C613C61ECB131698C4218D347
:1037C000A761D8F8100058B1884226BF20618461F3
:1037D000FCF7DAFC04E0FCF7D7FCEDE70C60ECE763
:1037E000D8F8140038B13169884202D3606184612D
:1037F00001E0FCF7C9FC49F00100686045F8099058
:1038000071698D420BD1C6F80890AAE06408640083
:10381000C8F8044049F00100686045F809904FEA93
:10382000D907202F22D206F1280000EBC704A046BA
:10383000B9F1100F38BFFCF7A7FC306820FA07F188
:10384000CA0705D4012101FA07F70743376006E0EC
:10385000A068316988422CBF8046FCF795FCA560C2
:10386000C8F80C50C5F80880EC607AE05FEA1920CF
:1038700008BF002123D0B0F5803F28BF1F211ED2F2
:10388000A0F58072120C02F008029040A0F5805161
:10389000090C01F004018840A0F580431B0CC2F123
:1038A0000E0203F00203521AD21A984002EBD032F1
:1038B000D01D29FA00F101F0010101EB420106F5EA
:1038C0009872002302EB8100E9616B612B617268E1
:1038D00022FA01F3DC0707D4012303FA01F11143B3
:1038E00071600560A8611DE002681F291DBF4908BD
:1038F000C1F1190109FA01F1494600E00246506898
:10390000C008C000484510D002F11003C80F03EBF7
:103910008003490018680028F0D13069834211D330
:103920001D60AA61ED60AD600EE0316990688A4269
:1039300028BF884206D3C5609560A860EA60002071
:10394000A86101E0FCF720FC306A401E08D130621B
:10395000D6F8C80100E080680028FCD14FF0FF30A5
:103960003062AFF30080BDE8F087FCF70DFCF8E7AC
:10397000701000202DE9F84F0F4606467B6831692C
:103980000024D808C0008F428146C0F07D8103F03A
:103990000305012D00F0788107EB090A574580F0F7
:1039A0007381DAF804B05FEACB7540F16D8113F0F2
:1039B000030F15460FD1E908202924BF2A1D904284
:1039C000C0F06481DFF84C138A685200451BAA429C
:1039D000C0F05C8156E1A9451CD3A9EB0504102C6D
:1039E000C0F0508103F001032B4343F00203791927
:1039F0007B6044F00302486840F0010048604A6080
:103A000008192246436843F0010343603046FEF73D
:103A10003BFB37E1B269924516D1F06848448542D4
:103A200080F0348103F00103441B2B4343F0020375
:103A300078197B6044F00102416841F00101416066
:103A40004260B061F4601DE1706982452FD1B068B9
:103A50008144A945C0F01A81A9EB0501102903F0A2
:103A6000010312D378191D4345F002057D60421809
:103A7000436843F00103436041F001044460415056
:103A800053685B085B0053600EE049EA030343F0B0
:103A90000203381D7B603A1D50F8091041F0010106
:103AA00042F8091000200021B1607061EAE05FEA8D
:103AB0008B7000F1EB804FEADB00C2009144A94516
:103AC000C0F0E4804FEAD20BA9EB0500BBF1200F58
:103AD00000903BD2DAF80C40DAF80880A24508BF23
:103AE000FCF752FBC24508BFFCF74EFBDAF80400B6
:103AF000C008C000B0EBCB0F18BFFCF745FB06EBCE
:103B0000CB0000F12801884508D032699045C0F00B
:103B10008C80D8F80C10514540F08780444506D180
:103B20003068012202FA0BF1884330607FE000F137
:103B300028018C4205D03069844276D3A168514572
:103B400073D1C8F80C40C4F8088070E0DAF80C4073
:103B5000DAF8188054450CD0DAF80800884222D3ED
:103B6000C168514504BFA26852451CD1C460A06021
:103B70001BE00AF11402146834B90AF11002146847
:103B80009CB101E01A46146804F114031868002877
:103B900002BF04F1100318680028F3D18A4202D34F
:103BA0000021116001E0FCF7EFFAB8F1000F3ED000
:103BB000DAF81C0006EB800101F598710A6892455D
:103BC0000AD13CBB7268012303FA00F022EA00002C
:103BD0007060002008602AE03169884517D3D8F862
:103BE0001000504514BFC8F81440C8F81040F4B194
:103BF00031698C4219D3C4F81880DAF8100058B132
:103C0000884226BF20618461FCF7BEFA04E0FCF71D
:103C1000BBFAECE70C60EBE7DAF8140038B1316975
:103C2000884202D36061846101E0FCF7ADFA00983C
:103C30001028387900F001000DD249EA000040F068
:103C4000020078603A1D381D50F8091041F001015A
:103C500042F8091016E0284340F002007860791914
:103C6000486840F001004860009840F00300486058
:103C700000980844426842F0010242603046009ACF
:103C8000FEF702FA3C4601E0FCF77EFA2046BDE86A
:103C9000F28F70B505460E46002425B93046FEF772
:103CA0004DFC044632E016F1400F2FD20B2E31BFEF
:103CB000102406F10B04E408E400AFF300800123B4
:103CC0002246A5F10801DFF85000FFF753FE044635
:103CD000AFF300800CB1083418E03046FEF72EFC3C
:103CE000040013D055F8042C12F0030F0CBF082069
:103CF0000420D208D200121AB24288BF32462946A6
:103D00002046FCF777FA2846FFF79CFB204670BD5B
:103D1000DC09002070100020DC09002070B5416F24
:103D2000496800F142020023D48C137064084C638C
:103D3000D38C5B088B63D38C5B08CB63D28C521F14
:103D40000A646FF001020A610B69DC07FCD50A61A5
:103D50004B6C43F480634B644B6C43F400434B6403
:103D6000436F03F16C04A57B022D1DD124889B6950
:103D70000D6A40F2555635420BD09C61436FB3F843
:103D80006E40DB699C61406FB0F87030006A8361FF
:103D90000AE09C62436FB3F86E40DB699C62406F3F
:103DA000B0F87030006A83620A61C86840F00100B0
:103DB000C86070BD10B5416F4968CA6852085200AA
:103DC000CA60002380F842304A6C22F400424A6400
:103DD00090F87220012A12D0426F02F16C039C7B92
:103DE000022C0CD192691B889362426FB2F86E303C
:103DF000D2699362406FB0F87020006A82626FF0FF
:103E0000010008610A69D307FCD5086110BDF0B54F
:103E10000468521C04F06004602C1CBF1204520C95
:103E20006FF002045205046100251E78102E0DD299
:103E30000669B707F9D56D1CAEB2B6EB124F046137
:103E4000F3DB1F78102FF0D201200880F0BD01466F
:103E5000703100204A78012A02D1002202204A70E3
:103E60000B78012B03D1002240F040000A7070470C
:103E7000010008D4012200F01F01DFF8F8378A4062
:103E8000400943F8202070470901020003D4DFF8FD
:103E9000E80781547047DFF8E43702F00F021A4454
:103EA00002F8041C704730B500F007000123C0F190
:103EB0000704052C2EBF0F2403FA04F4641E051D0D
:103EC000072D34BF0020C01E2140814003FA00F0BE
:103ED000401E1040084330BD10B501F01F01C1F174
:103EE0001A01C36C4FF0F844CC4002F0F842A343EF
:103EF000CA401A43C26410BDCB0D10B5143003F094
:103F000004031818090D01F01F01036807248C40F1
:103F1000A34302FA01F11943016010BD70B502F02C
:103F20001802DFF85C57D0F8B06025FA02F305EA12
:103F300001041940A64329403143C0F8B01070BDB8
:103F4000DFF8401701E0DFF8401781B00A6802434C
:103F50000A60096808400090009801B0704770B589
:103F6000012908BF00211FD0042908BF01211BD04F
:103F7000102908BF022117D0402908BF032113D000
:103F8000B1F5807F08BF04210ED0B1F5806F08BF66
:103F9000052109D0B1F5805F08BF062104D0B1F535
:103FA000803F0CBF0721082100F035F80425146874
:103FB000705C8540AC43146070BD70B5012908BFCA
:103FC00000211FD0042908BF01211BD0102908BFE0
:103FD000022117D0402908BF032113D0B1F5807FFB
:103FE00008BF04210ED0B1F5806F08BF052109D0AC
:103FF000B1F5805F08BF062104D0B1F5803F0CBF4A
:104000000721082100F007F808251468705C854036
:104010002C43146070BD0FF2CC620FF2D466535C77
:104020001830C2187047F0B5DFF86006DFF8604658
:104030000021C18201619DB000F060FB00F0CAFA6E
:1040400000F0C3FA00F0B8FA00F0B3FA202000F054
:104050009EFA00F0AAFA082000F099FA00F09FFA00
:104060000C22002105A800F05BFB182200210EA8FD
:1040700000F056FB042200F0A9FA00F078FA1822AA
:10408000002108A800F04CFB4FF08050FFF758FFCC
:1040900000F092FA00F08DFA432000F052FA4FF04F
:1040A000904000F047FB012000F04BFA204600F062
:1040B00041FB0020202105900691079005A94FF0B3
:1040C000A04000F0D1FB00210E91109100220121AF
:1040D00012910F92119213920EA94FF0A04000F08E
:1040E000D6FB4FF0A0454FF48031686820F0040003
:1040F0006860686820F00800686000916946DFF831
:10410000940500F0A1FB40210191022200210391BE
:104110000491029200F021FAE86840F40010E8608F
:1041200008216868DFF8706520F02000686032467A
:1041300000F017FA00F0F7F900F0F1F9E86CDFF899
:104140005C6500F005FA00F0F2F94FF4877100F0B9
:1041500008FA00F0E8F900F0E2F9E86CDFF84065F1
:1041600000F0F6F900F0E3F94FF4057100F0F9F909
:1041700000F0D9F900F0D3F9E86C20F0C00040F06D
:104180004000E8640322286B20F4F86040F43070AB
:1041900028634FF0A040DFF80C552946FFF7ACFE2E
:1041A0007F2229464FF0A040FFF7B8FE00F0DFF96C
:1041B0001822002105A800F0B3FADFF8EC04DFF8BC
:1041C000EC54016841F000510160006800F00050BB
:1041D0000090009800F0F0F910200321059006915E
:1041E0000022099205A94FF0904000F0A3FA382070
:1041F0000021022201900291049201AADFF8B0147A
:10420000DFF8B074284600F08FFB286840F0040007
:104210002860142200210EA800F082FA202200213A
:1042200006A800F07DFA2822002113A800F078FAF1
:1042300000F0CBF94FF40060FFF785FE00F0BCF909
:10424000022101910022029203920C210122059188
:104250004FF400650492009500F0A1F920210F9120
:1042600000200121ADF838004FF448628DF8481065
:1042700010924FF4807611960EA9384600F07EFB1E
:10428000386820F080003860012100F046F9602194
:10429000002206910792089209920A920B920C92C0
:1042A0000D92012100F035F9012100F030F91021C3
:1042B00000F033F900210791089106AA102100F0BF
:1042C00029F9102100F023F9314600F026F90021E8
:1042D0000791089106AA314600F01CF9314600F01A
:1042E00016F94FF4805100F018F900220792089255
:1042F000702140F67F42069109924FF4805100F000
:1043000008F94FF4805100F002F9B86820F070000D
:1043100040F01000B860B968E748014041F006017C
:10432000B9604FF48061F86820F04000F860002226
:10433000F86820F48040F860786840F07000786099
:10434000786820F470007860B86820F08000B86069
:104350001491ADF85A2030218DF8581018924FF46E
:104360000051179119921A921B921C92139515964F
:1043700013A9384600F088FC00F01BF900F01CF986
:104380004FF4C04100F0F8F800F00EF94FF400418E
:104390000091022201920321029100220392022144
:1043A0000491042200F000F94FF4E06100F0E4F819
:1043B000059200F0F4F81C22002106A800F0B0F9E4
:1043C00000F003F94FF48040FFF7BDFD00F0F1F875
:1043D000C0210091022201920021029103910491D7
:1043E000072200F0E1F84FF4E13000210690079138
:1043F000089109910C220B910C910A9206A9AF4CDD
:10440000AF4D204600F082FCA06820F48060A060E0
:10441000606820F490406060A06820F02A00A060EE
:10442000216841F00101216000F0CAFCFDF7C3F8EA
:1044300040F6C4120023A34C80185941C4E900017E
:10444000D5F8100100F0DAFC9F490A889042F7D3B2
:10445000FDF7B1F8D4E900238B42F9D828BF824296
:10446000F6D24020FFF76CFD9848994C0168994DB1
:1044700021F06001016041F22101026822F0800216
:104480000260C1604FF6FF71026822F0180242F02C
:1044900008020260816001222068042100F034F8E3
:1044A00001461820FFF7F0FC1820FFF7E1FC00F0B0
:1044B00086F801461920FFF7E7FC1920FFF7D8FC22
:1044C00020680022022100F01FF801461220FFF7A9
:1044D000DBFC1220FFF7CCFC00F071F80146252030
:1044E000FFF7D2FC2020286001222068032100F081
:1044F0000BF801462620FFF7C7FC40202860FCF798
:1045000051FFFCF756FFFEE7C0F30220CBE438462C
:1045100025E506AA384600F064BA38464DE57F2204
:1045200031462846FAE4032231462846E4E4E868A6
:1045300040F40010E8603246686820F020006860AF
:10454000704703210890099100220C9208A9704736
:1045500020F0C00040F04000E86401A9284600F0C7
:10456000C3B9686820F0400068602846B4E41022AF
:10457000002101A800F0D4B8009102220192032189
:104580000291002203920221049106227047012128
:1045900000900191002202920392049270476946B2
:1045A0004FF0904000F0C6B805926946204600F0F2
:1045B000C1B84FF48020C3E44FF40030C0E4206859
:1045C00000220021C0F302206DE418220021684679
:1045D00000F0A6B810B54048404C0168C908C900B1
:1045E00041F0020101600068216841F00101216091
:1045F00020688007FCD5216821F0F80141F0800196
:104600002160606820F4741040F460106060E06A1B
:1046100000090001E062216841F08071216020689A
:104620008001FCD5616821F0F0016160606820F4D0
:10463000E06040F480606060606820F4605060601A
:1046400060688008800040F002006060606800F0F0
:104650000C000828FAD1224800F0D6FB042000F014
:10466000D9FB206B800880002063206B20F48070D1
:10467000206310BD00E100E000E400E018ED00E080
:10468000FEFF0700141002401810024038050020F9
:1046900000040048000300500200300404006008D9
:1046A0000004002A0008302E1C1002400074004054
:1046B00001001002002C0140F8FFFEFF003801400D
:1046C00050010020D010002024F0000808300240E3
:1046D0000CED00E004E100E0002002400010024088
:1046E0000090D003000000000404043C3C000000E3
:1046F00000000800000008000800000080B507481E
:10470000016841F010010160032000F0B0FB0420BB
:1047100000F080FB00F0F6FB002002BD002002400C
:1047200010B5044610460A460146204600F004FC37
:10473000204610BD2DE9F0410B460246186890FA5C
:10474000A0F0B0FA80F70F254FF003086AE0090ADD
:1047500091FAA1F1B1FA81FC506A4FEA8C06B1FAE4
:1047600081F105FA06F68900B0438C400443546297
:1047700057E00120B840014053D05C68166891FAB8
:10478000A1F0B0FA80FE4FEA4E0E08FA0EFE26EABD
:104790000E0CB0FA80FE4FEA4E06B44044EA0C0418
:1047A00014605C68012C18BF022C11D19C689668BB
:1047B000B0FA80FE4FEA4E0E08FA0EFE26EA0E0C04
:1047C000B0FA80FE4FEA4E06B44044EA0C0494600E
:1047D000B0FA80FE1C69D6684FEA4E0E08FA0EFE4B
:1047E00026EA0E0CB0FA80FE4FEA4E06B44044EAC8
:1047F0000C04D4605C68022C13D1B0FA80FC5C69B4
:10480000BCF1080FA3D2B0FA80FC116A4FEA8C0603
:10481000B0FA80F005FA06F68000B14384400C43FC
:1048200014627F1C196831FA07F0A2D15868012878
:1048300018BF022805D15468D8688C4341432143EE
:1048400051600020BDE8F08110B5244B1B68024682
:104850000020DC0706D49368096823F440330B4337
:10486000936010BD012010BD70B502460020936812
:10487000DB070AD4D6681A4D0C684B6889682E404D
:1048800026431E430E43D66070BD012070BDF0B5B7
:1048900083680022DC071DD44C690D69CE680F685F
:1048A0004B68DFF840C033B1C3680CEA03031F4311
:1048B0008B681F4303E0C3680CEA03031F433E43B6
:1048C00035432C43C460036B49681B0941EA031359
:1048D000036300E001221046F0BD00000800005014
:1048E000C7BFFFFF3CC0F0FF30B582680023D2078E
:1048F00017D4CC684A6832B1C5688A6825F0047557
:1049000015432C4303E0C26822F004721443C460D0
:10491000C26C4C680968120A0C4344EA0222C26461
:1049200000E00123184630BDF0B501F0100101246C
:1049300005688C4000232540A54208BF01231BD0F9
:10494000D5685468166874B134430768926840F6B5
:10495000FA7C14430CFA01FC254327EA0C0705FAFC
:1049600001F1394307E00468FA278F403543BC431F
:1049700005FA01F1214301601846F0BDF0B5DFF8FA
:104980006C73036800F07CF9B84218BFB0F1804F37
:1049900001BF23F070034A681343B84208D0B0F156
:1049A000804F18BFB04203D0A84218BFA04203D125
:1049B000CA6823F4407313430360B8428A68C26232
:1049C00018BFB0420A88826203D0A84218BFA04232
:1049D00001D1097C0163416941F00101416100207D
:1049E000F0BD2DE9F041034601200129DFF80CC399
:1049F000DFF80C7300F044F9DFF8F08212D01029D0
:104A000048D0B1F5807F00F07F80B1F5805F00F085
:104A1000B580B1F5803F00F0DD80B1F5801F00F07A
:104A200004812BE1186A400840001862D3F820E0A6
:104A30005F68996910680CEA010140EA010C11698C
:104A40002EF00200084341085068434518BFB342A6
:104A500040EA410E03D0AB4218BFA34212D15069C5
:104A60002EF0080141EA800020F00401906841EA3C
:104A7000800E9069D16927F48077074327F4007787
:104A800047EA41075F60C3F818C0D0685863C3F8AD
:104A900020E0F2E0186A20F0100018624345186A1E
:104AA0005968D3F818C007EA0C0ED2F810C017687E
:104AB00020F0200040EA0C10D2F804C020F01000D2
:104AC00018BFB3424EEA072740EA0C1003D0AB42AE
:104AD00018BFA34213D1546920F0800040EA84102B
:104AE000946820F0400040EA8410946921F48061C9
:104AF00041EA8401D46921F4006141EAC4015960AA
:104B00009F61D168996363E0186A20F4807018622D
:104B10004345196AD3F804E0DF6910680CEA070717
:104B200040EA070C1769506821F4007141EA072137
:104B300021F4807118BFB34241EA002103D0AB4297
:104B400018BFA34213D1506921F4006141EA8021CA
:104B5000906821F4806141EA802190692EF48054AC
:104B600044EA001020F40054D06944EA401EC3F81F
:104B700004E0C3F81CC0D068D8637DE0186A20F454
:104B8000805018624345186A5968D3F81CC007EA78
:104B90000C0ED2F810C0176820F4005040EA0C3018
:104BA000D2F804C020F4805018BFB3424EEA072761
:104BB00040EA0C3003D0AB4218BFA34204D1946941
:104BC00021F4804141EA84115960DF61D1681964A0
:104BD000186252E0186A4B4920F4803018621F6A4C
:104BE000586D0140106840EA010E116927F4003049
:104BF00040EA014020F480315068434518BFB34279
:104C000041EA004703D0AB4218BFA34206D158681F
:104C1000916920F4803040EA01205860C3F854E0E4
:104C2000D068996D98651F6227E0186A20F480109B
:104C30001862196A5F6D34483840176840EA0727E0
:104C4000106921F4001141EA00515068434521F4F4
:104C5000801118BFB34241EA005103D0AB4218BFE4
:104C6000A34206D15868946920F4802040EA842049
:104C700058605F65D068D86519620020BDE8F08192
:104C80001D4C1C4D1A4E704730B50C7B8A684B6822
:104C90004D6A144324F480641C430A68CB8924F4CD
:104CA0000064144324F480541C430A690F4B24F419
:104CB0000054144324F480442C4324F400442C4333
:104CC00098420FD14A690B6A24F47024144324F4E7
:104CD00070041C438A69C96924F08074144324F069
:104CE00000740C434464002030BD0000002C0140DF
:104CF0000040014000440140004801408CFFFEFF9D
:104D0000FF8CFFFE8FFFFEFFFF8FFFFE7FB5044687
:104D10000E4620680125C10745D4226827487168DE
:104D20000240F0680A4331690243B0690A43024312
:104D300022606168B06821F4405101436160A1685C
:104D4000706921F440710143A16019498C4203D17B
:104D5000002000F045F909E016498C421CBF1648B6
:104D6000844220D1684600F02BF9029800281CBF2D
:104D70003168002917D0B36900254A08B3F5004F00
:104D80000CD102EB4002B2FBF1F080B24FF6F071B1
:104D90000140C0F342000143E16004E01018B0FBA1
:104DA000F1F080B2E060284604B070BD0000000061
:104DB000003801400044004000480040F369FFEF24
:104DC0001CB500F071F94FF4FA61B0FBF1F000F09E
:104DD00078F8084C211D204600F078F900F048FAD8
:104DE00005480090231D2246012104F1080000F02F
:104DF0007FFA13BD58080020B8AF00080146C888E4
:104E000049884843000C704701490860704700001A
:104E10008C08002038B50D4D0D4B2A7804464FF410
:104E20007A711868B1FBF2F2B0FBF2F000F049F8C9
:104E300050B9102C08D2002221464FF0FF3000F06C
:104E400023F8AC60002032BD012032BD8008002074
:104E50008C0800200901020002D4244881547047C4
:104E6000234B02F00F021A4402F8041C7047214B36
:104E700019684FF6FF020002114000F4E060084399
:104E80001D4908431860704770B51A4B1C68C4F37D
:104E900002230124C3F10705052D2EBF0F2504FAB7
:104EA00005F56D1E1E1D072E34BF0023DB1E294095
:104EB000994004FA03F3BDE870405B1E1A401143A9
:104EC000C8E710B5401EB0F1807F01D3012010BDAE
:104ED0000A4C60600F214FF0FF30FFF7BBFF00214D
:104EE000A16007202060002010BD000000E400E069
:104EF00018ED00E00CED00E00000FA0510E000E025
:104F0000FCF74FBB0B4882B0016841F00101016022
:104F1000026802F0010200920099426842F0805259
:104F20004260406800F0805000900098042002B079
:104F3000FFF79DBF1810024062F30F2262F31F4279
:104F4000401810F0030308D0C91A1FD3DB0748BF6D
:104F500000F8012D28BF20F8022D130030B41446AC
:104F60001546103928BF20E93C00FAD8490728BF68
:104F700020E90C0048BF40F8042D890028BF20F824
:104F8000022D48BF00F8012D30BC7047C91818BF6A
:104F900000F8012DCB0728BF00F8012D704700F560
:104FA0008E71087850B901200870002248684A7054
:104FB000016841F020010160022070470120704724
:104FC00010B5044600F031F8206000F038F8606059
:104FD00000F03BF8A060606800F03FF8E06010BDB2
:104FE00080B50021F8B92A48026B02F00302012AB9
:104FF00004D011D3032A04D008D30DE000F015F833
:1050000010E0006880070ED522490CE0006A800796
:1050100009D54FF4004106E000F007F800F00FF862
:1050200000F013F80146084602BD1B48006800F076
:105030000C00082808BF00F016B81648704716493B
:10504000164A0968C1F3031104E01349144A0968B8
:10505000C1F30221515CC84070470F49104A0968EA
:10506000C1F3C221F6E70C480168826A036801F4C3
:105070008031B1F5803F0CBF06490A4902F00F02AA
:10508000521CB1FBF2F0C3F38341891C48437047C3
:105090000010024000127A000410024008AF00081D
:1050A00054B0000800093D00014800687047000046
:1050B0008C08002081B041F48032C261C161C261BC
:1050C000C0690090009901B0704700002DE9F84FC9
:1050D0008246544E8B46301D00F074F95248534FAF
:1050E000DFF84C81DFF84C91534C544DB0630021F4
:1050F000534831703063FBF73DFC00F06DF900F070
:105100009BF9384600F0C0FAF7614E484E4FB06147
:10511000384600F0C3FAF169B0693A4600F0F2FA95
:10512000404600F002FB306BB169484B00904246AC
:10513000484600F0FCFA204600F0A6FA284600F0A7
:10514000A3FA346275624248424C434DB06200F0AB
:1051500014FB4248B16A706300F5867041600460D8
:10516000284600F017FBF56204F114053C48F06393
:1051700000F023FB002000F03BFB01202874B06905
:1051800000F074FB2061B06900F070FB009006F144
:105190004001BDF80200288071612346B269311DCB
:1051A00006F1400000F06DFBB06900F074FB0146B1
:1051B0007069002200F072FB7069CAF800000023D9
:1051C0002848F1690160326A42600022716A816098
:1051D000C260316B0161C0F814908761C261C0F890
:1051E0002080321DB169416282620022F16AC1628F
:1051F000B16A426301638363726BC2630364436495
:105200008364C3640365CBF80000174A174800F0B5
:105210004CFB0C21301D00F065FB01203070BDE817
:10522000F18F00BF680E00206806002038050020BE
:105230003804002070040020640500209005002040
:105240008C0300200404002064020020D405002008
:10525000100500209C0F0020E804002050010020D1
:10526000BC050020C40E0020B8100020E805002076
:1052700010B54FF480714FF09040FFF71BFF4FF4D3
:1052800000714FF09040FFF715FF4FF400614FF0B1
:105290009040FFF70FFF154C4FF480412046FFF779
:1052A00009FF4FF480614FF09040FFF703FF4FF488
:1052B00000412046FFF7FEFE4FF400512046FFF765
:1052C000F9FE02214FF09040FFF7F4FE01214FF06C
:1052D0009040FFF7EFFE40214FF09040FFF7EAFECD
:1052E0002046BDE810400121FFF7E4BE000400485D
:1052F0002DE9FF47204E214FDFF884A004460D46DC
:10530000904699463760384651463022FAF772FF88
:1053100000944B4642462946384600F046FB30682A
:10532000184F00F04CFB30682F22002100F051FB99
:1053300030682422012100F04CFB13487060514674
:105340003022FAF757FF384600F050FB0C980F4A0E
:105350000F4B0290316801910092394670680D4AF6
:1053600000F046FB00944B4670684246294600F028
:105370001CFBBDE8FF8700BFE01000202C060020CA
:10538000FC0500201C070020B40B00207DB00008A5
:105390009F4F0008EDA800080949088810B10A8845
:1053A000501E08804A88022A02D34888421E4A803A
:1053B0008888022802D38888421E8A80704700BFEE
:1053C000900800200021017041808180704700EB2F
:1053D0004100B0F9320070471548164981B00268A3
:1053E000D20711D4036843F001030360026802F09E
:1053F00001020092009A0B6943F001030B610168FE
:1054000049084900016011E008680A6822F070024A
:1054100042F020020A6000F070000A6942F00102C6
:105420000A610B6823F070031843086001B07047ED
:105430001C100240040000402DE9F84F824C834DBF
:10544000DFF80C92DFF80CA22DED028B208868703B
:1054500005F5DF7605F29E28F0750A27E088308191
:105460004FF03C0B00B240427081208C307305F548
:105470003870B4F912100184B4F914204284B4F9DC
:105480001610A9F80010B4F91820A9F80220B4F9F0
:105490001A10A8F83610B4F91C20A8F83820E18BAF
:1054A00001810A4609B293035242920349420360C2
:1054B0004260418105F20A21608DC88105F50972BB
:1054C000B4F92C000882B4F92E00488205F5087062
:1054D0000260218E8180B4F93220C28005F50C7201
:1054E000B4F934100181C260E18E0182B4F9382030
:1054F000428205F50F72B4F93A1081828261A18F60
:105500008183B4F93E20428205F51272BAF9001087
:1055100081828261BAF802108183BAF90420428242
:105520000022BAF906108182826140F2D460A88418
:105530006FF03B022189794391FBFBF091FBF2F183
:105540003080F18000F076FA4FF06632424B00F086
:1055500087FA00F059FB7085A882A5F81A016FF050
:105560003B026089474397FBFBF097FBF2F27080A8
:10557000B280B085E882278AC9F82C70BAF8080092
:10558000784300F05FFB0022344B00F069FB00F031
:105590003BFBA5F80A0237866F834DF6B4503049BD
:1055A000B1FBF7F18AB2424305F5BC7005F58D7386
:1055B0000180920B0904490CDA870183608CC0EBEF
:1055C000004000F037FA274A274B00F049FB00F073
:1055D0001BFBA8F8280040F20B21A08CC0EB004078
:1055E00090FBF1F1A8F82A10E08C1E3800F022FAA6
:1055F0001E4A1F4B00F034FA1E4A1F4B00F054FCA9
:1056000000221E4B00F02CFA41EC180B00F0FCFAC3
:10561000A8F8000053EC182B19481A4900F044FC74
:1056200000F0F2FAA8F80200B4F90C00A886B4F968
:105630000E10E986BAF810006884BAF81210E984EE
:10564000BDEC028BBDE8F18F00F000086402002081
:105650009005002040F000086666F23F00408F4051
:105660000090D003E7799EE7795E80405A643BDF83
:105670004F8D973F7B14AE47E17A0740C064D3401B
:10568000B81E85EB91D7B1C0018842888180C28065
:105690000022018C418482608262704710B504460A
:1056A00004F1F60094F816110170012282730121B1
:1056B000B4F92E20124890FBF2F000B2002205E06F
:1056C00000EBD070C00300144900521C0028F7D131
:1056D00021866286B4F92E00B4F9301010FB01F176
:1056E00042F6BE0291FBF2F26285204600F099FC80
:1056F00004F13400FFF7C8FF0020608210BD00BF36
:105700005EEA0F000161426100F12A010A7802702D
:105710000022B1F902301B044360B1F90410428049
:1057200009048160C2608261704700F0A4BCF0B5DA
:10573000059F044604F1480500266A6204F10C0046
:1057400000222962AB62EF622E736A7301E0806807
:10575000761C10B1F1B20529F9D3F2B20C20424304
:10576000A018002181602E70642123884B434FF4E0
:105770007A70B3FBF0F0A873F0BD10B5044604F1E5
:105780000C0000F08DFC84F826002046BDE8104097
:1057900000F04EBD10B50446207848B9201D00F039
:1057A0007FFC84F826002046BDE8104000F056BD7E
:1057B000618A21820020E08210BD00218160416069
:1057C000C1600161012141617047C3688268012B9A
:1057D00003D901698A185B1E04E004D1426841695B
:1057E0004A430023C3608260406992FBF0F0704737
:1057F0001FB504460422002102A8FEF791FF0422EF
:1058000000216846FEF78CFF0422002101A8FEF764
:1058100087FF26211348029A11FB04F10844026015
:1058200001994160009AC260002200990161C2831F
:105830000099C0F816100021019AC0F81A200184BE
:10584000094800EB8404206A00F00BFD606A002127
:1058500000F007FDA06900F006FD206B00F00BFDD5
:105860001FBD00BF9C0F0020680E002081B0B0F962
:105870002E10ADF80010008EADF80200009801B0B7
:10588000704701604260002183600173C181018221
:10589000C18201767047B0F92C0070470123037371
:1058A000C181C28203764376704701604260022163
:1058B000017200224281038AC1894B434FF47A72FC
:1058C000B3FBF2F1491E4FF6FF72914288BF1146B9
:1058D00001D801B90121818170470068012180F858
:1058E0002211704710B502780024142A0ED8DFE880
:1058F00002F0181E4E2A414C4E5052550D0D0B24ED
:10590000262834363E453C000A004BD003291CBFF4
:105910000129072903D00022802100F0AEFC204697
:1059200010BD0A46032A3DD0012A39D13AE00729A1
:1059300018BF0D2936D00E292EE00E2918E00F29A8
:1059400016E0022914E0072918BF10292AD00429DB
:1059500018BF112926D001291EE0112908E01229BB
:1059600018BF07291ED0142916E0122900E00429C7
:105970000DD117E00A46132A03D113E00A46042A80
:1059800010D0072A0ED0052A06E006290AD00729DA
:1059900002E0082900E00929B8D103E00A0001D09B
:1059A0000C2AB3D101240170B9E710B5029C01772C
:1059B000846200210262436280F82C1010BD4169AC
:1059C000002918BF084770478169002918BF084798
:1059D00070474368002B18BF1847704780B583682D
:1059E00089220BB198470246104602BD00F05DBC0B
:1059F000F8B50446084615461E46069F0799089ABC
:105A0000206304F1C00359601A600749074B084A34
:105A10000091214600F05BFC6563A663E7632046C6
:105A2000BDE8F24000F05DBC8DB00008498600087A
:105A300091B00008C11768B14840401AB0FA80F22E
:105A40009040D21CC907C2F5846241EA025202EBBF
:105A5000D021400570470068012180F8231170476C
:105A6000B0B581EA030C0CF0004C40F2FF7515EA6A
:105A700011541DBF15EA1357AC42AF4239E0E41987
:105A800023EA455343F48013C90241F0004141EA3F
:105A9000505EC7021100A7FB020200284FF0000071
:105AA000EEFB01204FF00001E3FB072118BF42F09D
:105AB0000102401800214941E3FB0E01A4F5806476
:105AC0000F0302D252004041494154F101046CDD00
:105AD000470872F1004250F1000051EB0451A1F56A
:105AE00080115CBF41EA0C01B0BD4CEA05510020B9
:105AF000B0BD05EA1357AC4214BFAF4241E050EAD3
:105B0000410E1CBF52EA430E02E061460020B0BDC8
:105B100024423C441BD15FEA070EF6D0090302BFC2
:105B200001460020AEF1140EB1FA81F7AEEB070486
:105B300001FA07FE0C37C7F1200100FA07F7C84049
:105B40004EEA000E23EA455343F48013A2E733F0F4
:105B50000043B3FA83F704BFB2FA82FE77440B3FE7
:105B6000E41BB7F1200E2FBF02FA0EF3BB40C7F1C2
:105B7000200E22FA0EFE38BF43EA0E03BA40641C20
:105B800082E750EA410E14BF52EA430E6FF0000163
:105B90004FF4001717EB430F8ABF194617EB410F5D
:105BA000B5E74CEA05510020B0BDD4F10104B4F1D1
:105BB00020070FDAC4F12007520828BF42F0010283
:105BC00010FA07F501FA07F7E1BF2A43E04038432E
:105BD000E1400FE0352C98DCC7F1200452EA400286
:105BE00020FA07F218BF42F0010231FA07F0A14093
:105BF0000A43002172F1004250F1000051EB0C0108
:105C0000B0BD000001000200C1F30A5340F2FE32B1
:105C10009B1A14DDD3F120034FEAE17208DDC902BB
:105C200041EA505141F00040D84080185040704740
:105C300003F2E13010B1D24382F0004070470020FF
:105C400070470E00014648B1B0FA80F18840C91C87
:105C5000C1F58461090501EBD021400570470000C2
:105C6000F0B540F2FF7581EA030C0CF0004C15EA28
:105C700011541DBF15EA1357AC42AF42E5E0BC41D9
:105C8000C1F31301C3F31303801A994143F4801342
:105C900004D2641E4000494180185941C90241EABA
:105CA0005051B1FBF3F603FB1611A2FB0675D7EBBF
:105CB000C020A94102D2761E80185941C90241EA8A
:105CC0005051B1FBF3FE03FB1E11A2FB0E75D7EB87
:105CD000C020A94103D2AEF1010E801859418902BA
:105CE00041EA9051760546EA8E2EB1FBF3F603FBAE
:105CF0001611A2FB0675D7EB8020A94102D2761EB1
:105D000080185941C90241EA50514EEA060EB1FBD2
:105D1000F3F603FB1611A2FB0675D7EBC020A941D1
:105D200002D2761E80185941C90241EA5051B1FB96
:105D3000F3F703FB1711A2FB0735D3EBC020A941F2
:105D400067F100070CBF004247F0010766F3D52753
:105D50004FEA1E31B80814F5806412DDBD0775F1F5
:105D6000004250EB0E5051EB045111F5801F5CBF07
:105D700041EA0C01F0BD4CF07F6141F0E0410020B0
:105D8000F0BDBD076D0840EA0E5041F48011D4F11A
:105D90000104B4F120060ADAC4F120060200E04052
:105DA00001FA06F3E1401843B24015430EE0342CEB
:105DB00013DCC6F1200445EA40056D0820FA06F21E
:105DC000154321FA06F0A1400D43002175F1004270
:105DD00050F1000051EB0C01F0BD00205FEA0C0116
:105DE000F0BDCFB992185B41B3FA83F704BFB2FAA2
:105DF00082F6BF190B3FB7F120062FBF02FA06F358
:105E0000BB40C7F1200622FA06F638BF3343BA403A
:105E10001CB1E419641E33E77F4231F00041B1FA4E
:105E200081F404BFB0FA80F6A4190B3CB4F120064B
:105E30002FBF00FA06F1A140C4F1200620FA06F6B1
:105E400038BF3143A0403C1B1AE7AC421ABF05EAF9
:105E50001357AF4212E050EA41061CBF52EA430614
:105E6000BFE750EA4107304661461CBF41EA055191
:105E7000F0BD52EA430C08BFC143F0BD00204FF40F
:105E8000001616EB410F98BF16EB430F08BF16EB39
:105E9000410F24BFC14305E016EB430F0CBF614621
:105EA0004CEA0551F0BD000070B44FF0004591EA96
:105EB000030F40F123826B40841A71EB030604D276
:105EC0006E40001BB141121973414FF4001C1CEBD2
:105ED000410F34BF7CEB430683E00C0DA4EB13565B
:105EE000362E00F37C80012E45EAC32341DC43EAD1
:105EF000525312BFD20292025B08240545EAC12127
:105F000041EA5051D2EBC020994125D407D1B0FAD3
:105F100080F610FA06F162D00020203608E0B1FACF
:105F200081F6B140C6F1200220FA02F21143B040DE
:105F30004FEAF474B4EB465434F001064FEA7404AB
:105F40000AD8D6F50016760D04F00044F04061FA48
:105F500006F25040F1404840C00A40EA415021F06A
:105F6000004128BF5FEA500550F1000044EBD12109
:105F700035E0DB0A45EAC121C90AB6F120050EDD8C
:105F800042EA0242120CC5F1200603FA06F6EB4083
:105F900042EA06056D42984161F100010DE062FAA6
:105FA00006F5F240554063FA06FC82EA0C02F34023
:105FB0005A406D42904161EB030111F4801F05D1FD
:105FC000641E620502D06D004041494121F48011F8
:105FD000430875F1004350F1000041EB045170BCDF
:105FE00070471CEB410F15D223F0004352EA4306E1
:105FF0000BD04FEA4C0CBCEB410F04D80C0D661EC5
:10600000342EB7DDEBE7801A994150EA410608BF0C
:106010000021E4E708BF1CEB430F28BF6FF000012D
:10602000DDE738B50021016681668180002200F13C
:10603000F4014266C266C281CA704A71CA60002316
:1060400000F591728B700B718B604B611370537004
:1060500000258A7E04E000EB44045B1CA4F8745025
:10606000DCB29442F7DB0D700D830021BDE83440B3
:10607000343000F0F6B80021017000228280C18027
:106080008181C281418202700162416202852C30AD
:106090008180417002708271C27141894180704774
:1060A00070B50146FF220E795E4C002304EB83009D
:1060B000406A18B9042A0ADD1A4608E00579B54293
:1060C00002BF00680D68A84204BF1A4604235B1C87
:1060D000DBB2042BEADB104604284EDA04F1240379
:1060E000241D43F82010002544F830500B689868B0
:1060F000C0071AD45C6824F004045C6004201860B3
:1061000020255C68484824F020045C601D609C6881
:10611000044044F000449C609868C00FFCD19C6827
:106120004248044044F001049C60186B00090001DF
:106130001863087904460A2C054605D2022606FA99
:1061400000F000F01CF807E0022606FA00F00A3C16
:1061500000F015F840F00070C40D143304F004048E
:106160008968E318000D00F01F001C6807258540B2
:10617000AC4301FA00F020431860104670BD40EABD
:10618000856004EB440440EA0450704710B525498B
:1061900001EB80000222416A087982400A2842EA23
:1061A000806204D200EB400042EA005206E00A3866
:1061B00000EB400042EA005242F00072086850F8DA
:1061C000303F120D23F4F86302F4F8621A430260C0
:1061D00016480A68136C9468044044F00404946000
:1061E000086802685207FCD5006C80B210BD38B553
:1061F0000C4C6178012914D12078FFF7C7FF237870
:1062000060800221617004EBC305696849B1002216
:10621000627001461846AA686B6801B0BDE830405C
:10622000184731BD680F0020C0FFFF3FC0FFFF7F50
:1062300010B5418B828B51184908002204E0036A93
:1062400094B223F81410521C048B93B2A342F6D3D9
:106250008180C180002180F8251010BD00210182BD
:106260007047816070470178012903D100690021DE
:10627000FFF7F7BF70478168084770B503461C7881
:106280005D889E8820460D4331430A2825EA020294
:10629000998003D1110005D10B2402E0110001D037
:1062A0000A2420461C705A8070BD0021418241752D
:1062B000002200F19601027500F21B100A704A706C
:1062C0008A70CA700A71027042708270704700282A
:1062D00000D1704710B5029C0160C46042608360C9
:1062E00010BD10B50446206BE16B8847802084F810
:1062F000C800A16B206BBDE810400847841A71EB01
:10630000030603D2001BB141121973414FF4001C64
:106310001CEB410F34BF7CEB430442E00C0DA4EBBB
:106320001356352E4FDC45EAC323DB0A45EAC1216B
:10633000C912B6F120050DDD63FA05F6EB4086EAD9
:106340000305124218BF45F00105C01851F10001C4
:106350000CD213E062FA06F5F2405540F3415A4080
:10636000B340F3405A408018594107D349085FEAC7
:1063700030005FEA350528BF45F0010501F58011C1
